:100000000C9434000C9451000C9451000C94510049
:100010000C9451000C9451000C9451000C9451001C
:100020000C9451000C9451000C9451000C9451000C
:100030000C9451000C94D2000C9451000C9451007B
:100040000C9451000C9451000C944F010C945100ED
:100050000C9451000C94B9000C9451000C94510074
:100060000C9451000C94510011241FBECFEFD8E026
:10007000DEBFCDBF12E0A0E0B1E0E0E1F4E002C0FD
:1000800005900D92AA3AB107D9F722E0AAEAB2E0A8
:1000900001C01D92AD3AB207E1F70E9446010C94EF
:1000A00006020C940000ECE7F0E08081806680831B
:1000B000EAE7F0E0808188688083808186608083C1
:1000C0008081806480830895ECE7F0E09081907FE8
:1000D0008F70892B8083089510928000E1E8F0E012
:1000E00010828EEE95E89093850080938400808145
:1000F00084608083EFE6F0E08081816080830895F2
:100100008AB182608AB98AB18E7F8AB987E690E027
:100110009093C5008093C40088E98093C10086E075
:100120008093C20008959091C00095FFFCCF80930A
:10013000C6000895CF93DF93EC0103C021960E947F
:10014000930088818111FACFDF91CF910895F894BF
:100150008AB18C638AB984B18F6084B90E945300DC
:100160000E946C000E94800080E00E9464007894ED
:1001700008951F920F920FB60F9211248F93EF9351
:10018000FF93809179008093AA02EAE7F0E08081F2
:1001900080648083FF91EF918F910F900FBE0F903D
:1001A0001F9018951F920F920FB60F9211242F9344
:1001B0003F934F935F936F937F938F939F93AF93EF
:1001C000BF93EF93FF93CF93DF93CDB7DEB7259720
:1001D000DEBFCDBF8091AC028823B9F08091AA0226
:1001E00040E1BE016F5F7F4F90E00E94D10180919E
:1001F000AA02803118F480E30E949300CE01019698
:100200000E949A0080E20E9493008EEE95E89093FF
:100210008500809384000F900F900F900F900F90A7
:10022000DF91CF91FF91EF91BF91AF919F918F910E
:100230007F916F915F914F913F912F910F900FBEE2
:100240000F901F9018959BB193709BB94BB1982F4D
:100250009F70292F30E0220F331F220F331F242BD2
:100260002BB982958F7085B9089580E091E00E9446
:100270009A0087E191E00E949A008BE291E00E944F
:100280009A0083E491E00E949A0008950E94A700DA
:1002900085E591E00E949A000E943501FFCF1F92F0
:1002A0000F920FB60F9211242F933F934F935F93AA
:1002B0006F937F938F939F93AF93BF93CF93EF935E
:1002C000FF93C091C60088E691E00E949A008C2FAF
:1002D0000E9493008FEC91E00E949A008091AC0202
:1002E000882369F01092AC028DE791E00E949A0099
:1002F0008FEC91E00E949A000E9435013CC08091F1
:10030000AB02882381F01092AB028C2F0E94230154
:1003100088EA91E00E949A008FEC91E00E949A0096
:100320000E94350128C0C13319F0C23391F01DC0BD
:1003300082ED91E00E949A008FEF91E00E949A0076
:1003400081E08093AC02EAE7F0E080818064808302
:1003500012C084E392E00E949A008CE592E00E9431
:100360009A0081E08093AB0206C084E892E00E948C
:100370009A000E9435018FEC91E00E949A00FF9153
:10038000EF91CF91BF91AF919F918F917F916F919D
:100390005F914F913F912F910F900FBE0F901F9043
:1003A0001895BB274A3031F4992322F4BDE2909589
:1003B00081959F4F0C94DD01BB27FB015527AA2790
:1003C000880F991FAA1FA41710F0A41B83955051E2
:1003D000B9F7A05DAA3308F0A95DA193009779F75A
:1003E000B111B1931192CB010C94F601DC01FC0127
:1003F000672F71917723E1F7329704C07C916D9359
:1004000070836291AE17BF07C8F30895F894FFCFC9
:100410004D454EDA202D204C41424F5241544F520F
:10042000494F20360D0A004573636F6A6120756E6F
:1004300061206F706369F36E0D0A00312E204C65E8
:10044000657220506F74656E6369F36D6574726FC9
:100450000D0A00322E20456E7669617220415343A9
:1004600049490D0A00486F6C61206465736465201A
:1004700055415254210D0A004361726163746572E3
:1004800020496E6772657361646F3A200044657439
:10049000656E69656E646F20656C20656E76ED6FC4
:1004A000206465206461746F732064656C2041442E
:1004B000432E2E2E200D0A004D6F737472616E64F0
:1004C0006F20656C20636172616374657220707562
:1004D0006572746F732044207920422E2E2E200DD9
:1004E0000A004F706369F36E20312073656C656399
:1004F00063696F6E616461202D204C6565722050C8
:100500006F74656E6369F36D6574726F0D0A0050E8
:10051000726573696F6E65206375616C717569656D
:100520007220636172616374657220706172612010
:10053000646574656E657220656C206D7565737495
:1005400072656F004F706369F36E20322073656CC3
:10055000656363696F6E616461202D204D6F7374F4
:100560007261722041534349490D0A00496E677216
:1005700065736520656C20636172616374657220C8
:1005800071756520717569657265206D6F73747220
:1005900061722E004C61206F706369F36E20736589
:1005A0006C656363696F6E616461206E6F20657353
:0A05B0002076E16C6964610D0A0019
:00000001FF
