S01100004C6162365F554152542E7372656333
S11300000C9434000C9449000C9449000C9449005D
S11300100C9449000C9449000C9449000C94490038
S11300200C9449000C9449000C9449000C94490028
S11300300C9449000C9449000C9449000C94490018
S11300400C9449000C9449000C949E000C944900B3
S11300500C9449000C9449000C9449000C944900F8
S11300600C9449000C94490011241FBECFEFD8E032
S1130070DEBFCDBF11E0A0E0B1E0EAEFF1E002C0E5
S113008005900D92A23EB107D9F70E94EE000C94A0
S1130090FB000C9400008AB182608AB98AB18E7F19
S11300A08AB987E690E09093C5008093C40088E9FC
S11300B08093C10086E08093C20008959091C000AF
S11300C095FFFCCF8093C6000895CF93DF93EC0196
S11300D003C021960E945E0088818111FACFDF91CE
S11300E0CF910895CF93DF93EC0103C021960E9432
S11300F05E0088818111FACFDF91CF9108959BB181
S113010093709BB94BB1982F9F70292F30E0220F29
S1130110331F220F331F242B2BB982958F7085B97F
S1130120089580E091E00E94650084E191E00E94DE
S113013065008CE291E00E94650008951F920F9281
S11301400FB60F9211242F933F934F935F936F93A6
S11301507F938F939F93AF93BF93CF93EF93FF932B
S1130160C091C6008EE391E00E9465008C2F0E942E
S11301705E008EED91E00E946500C13319F0C23338
S113018031F00DC083E591E00E9465000CC080E869
S113019091E00E9465008C2F0E947F0004C088EAD1
S11301A091E00E9465000E949100FF91EF91CF9130
S11301B0BF91AF919F918F917F916F915F914F917B
S11301C03F912F910F900FBE0F901F9018958AB1F9
S11301D08C638AB984B18F6084B90895F8940E94BD
S11301E0E7000E944B0078948EEC91E00E9472002C
S10D01F00E949100FFCFF894FFCFA6
S11301FA4573636F6A6120756E61206F706369F37A
S113020A6E0D0A00312E204C65657220506F74659C
S113021A6E6369F36D6574726F0D0A00322E2045A0
S113022A6E766961722041534349490D0A0043615C
S113023A72616374657220496E6772657361646F73
S113024A3A20004F706369F36E20312073656C6540
S113025A6363696F6E616461202D204C6565722049
S113026A506F74656E6369F36D6574726F0D0A007D
S113027A4F706369F36E20322073656C656363693A
S113028A6F6E616461202D204D6F737472617220E8
S113029A41534349490D0A004C61206F706369F365
S11302AA6E2073656C656363696F6E616461206E49
S11302BA6F2065732076E16C6964610D0A00486FEA
S11302CA6C612064657364652055415254210D0A9A
S10502DA00001E
S9030000FC
