S01100004C6162365F554152542E7372656333
S11300000C9434000C9449000C9449000C9449005D
S11300100C9449000C9449000C9449000C94490038
S11300200C9449000C9449000C9449000C94490028
S11300300C9449000C9449000C9449000C94490018
S11300400C9449000C9449000C948D000C944900C4
S11300500C9449000C9449000C9449000C944900F8
S11300600C9449000C94490011241FBECFEFD8E032
S1130070DEBFCDBF11E0A0E0B1E0E4E8F1E002C0F2
S113008005900D92AE30B107D9F70E9486000C940A
S1130090C0000C9400008AB182608AB98AB18E7F54
S11300A08AB91092C000E1ECF0E080818869808315
S11300B0E2ECF0E080818660808387E690E09093B4
S11300C0C5008093C40008959091C00095FFFCCFB3
S11300D08093C60008950F931F93CF93DF938C01F1
S11300E0C0E0D0E003C00E9464002196F801EC0F48
S11300F0FD1F80818111F7CFDF91CF911F910F9167
S11301000895F8940E944B00789408950E94810009
S113011080E091E00E946B00FFCF1F920F920FB618
S11301200F9211242F933F934F935F936F937F9379
S11301308F939F93AF93BF93CF93EF93FF93C0910C
S1130140C60087E091E00E946B008C2F0E9464003F
S11301508DE00E9464008AE00E946400FF91EF91A8
S1130160CF91BF91AF919F918F917F916F915F914B
S11301704F913F912F910F900FBE0F901F901895A4
S1070180F894FFCF1D
S1110184484F4C410D0A00546578746F3A00E0
S9030000FC
