S01100004C6162365F554152542E7372656333
S11300000C9434000C9449000C9449000C9449005D
S11300100C9449000C9449000C9449000C94490038
S11300200C9449000C9449000C9449000C94490028
S11300300C9449000C9449000C9449000C94490018
S11300400C9449000C9449000C9484000C944900CD
S11300500C9449000C9449000C9449000C944900F8
S11300600C9449000C94490011241FBECFEFD8E032
S1130070DEBFCDBF11E0A0E0B1E0E8E8F1E002C0EE
S113008005900D92A431B107D9F70E94B7000C94E2
S1130090C2000C9400008AB182608AB98AB18E7F52
S11300A08AB987E690E09093C5008093C40088E9FC
S11300B08093C10086E08093C20008959091C000AF
S11300C095FFFCCF8093C6000895CF93DF93EC0196
S11300D003C021960E945E0088818111FACFDF91CE
S11300E0CF9108959BB193709BB94BB1982F9F709A
S11300F0292F30E0220F331F220F331F242B2BB95B
S113010082958F7085B908951F920F920FB60F9242
S113011011242F933F934F935F936F937F938F9308
S11301209F93AF93BF93CF93EF93FF93C091C60078
S11301308C2F0E9472008C2F0E945E00FF91EF9121
S1130140CF91BF91AF919F918F917F916F915F916B
S11301504F913F912F910F900FBE0F901F901895C4
S11301608AB18C638AB984B18F6084B90895F89494
S11301700E94B0000E944B00789480E091E00E94BD
S10B01806500FFCFF894FFCFE6
S1130188486F6C612064657364652055415254213D
S10701980D0A000048
S9030000FC
